:10000000008003203901000001010000010100000F
:1000100001010000010100000101000000000000DA
:1000200000000000000000000000000001010000CE
:1000300001010000000000000101000001010000BA
:100040000101000001010000D117000001010000C2
:100050000101000001010000010100000101000098
:100060000101000001010000010100000101000088
:100070000101000001010000010100000101000078
:100080000101000001010000010100000101000068
:100090000101000001010000010100000101000058
:1000A0000101000001010000010100000101000048
:1000B000010100000101000000000000000000003C
:1000C0000101000001010000010100000101000028
:1000D0000101000001010000010100000101000018
:1000E000010100000101000001010000000000000A
:1000F00000000000010100000000000001010000FC
:1001000080B400AF00BFFDE780B400AF094BD3F867
:100110008830084A43F47003C2F88830BFF34F8F29
:1001200000BFBFF36F8F00BF00231846BD465DF8C8
:10013000047B704700ED00E080B582B000AFFFF7B0
:10014000E3FF114B7B60114B3B6007E07A68131DA6
:100150007B603B68191D396012681A603B680C4A65
:100160009342F3D30B4B7B6004E07B681A1D7A60EB
:1001700000221A607B68084A9342F6D300F09CF88C
:1001800000BF0837BD4680BD882400000000002065
:1001900000000020000000208400002080B584B012
:1001A00000AF78607B68002B0AD0074B43F0010357
:1001B000FB607B689B01BB60FB68B868984700E008
:1001C00000BF1037BD4680BD3024000080B582B02E
:1001D00000AF78607B68002B0AD04FF47A70FFF78D
:1001E000DDFF7B68013B7B607B68002BF5D100E085
:1001F00000BF0837BD4680BD80B483B000AF7860D3
:100200004FF080430122C3F8B4254FF08043012210
:10021000C3F818254FF0804301229A601F4B4FF41A
:100220000042C3F840251D4B4FF4A472C3F8442587
:100230001A4B4FF44032C3F84423194B194AC3F800
:100240001025174B184AC3F814257B681B02174A60
:1002500043F00313C2F81435114B124AC3F81825A2
:100260000F4B134AC3F81C250D4B124AC3F8202527
:100270000B4B0F4AC3F82425094B0722C3F804256A
:10028000064B01229A60054B01221A600023184692
:100290000C37BD465DF8047B704700BF00B00040DE
:1002A00000F0014040B1004008B000400060004054
:1002B0000460004044B1004080B582B000AF062029
:1002C00001F065FA0F20FFF797FF01F0D9FA786087
:1002D000054801F08DF94FF47A70FFF777FF01F0D0
:1002E00041FB7860F7E700BF202400000000000019
:1002F00080B485B000AFB9607A603B600346FB73A1
:100300007A683B689A4204D2BA687B681344FA7BE5
:100310001A7000BF1437BD465DF8047B704780B487
:1003200085B000AFB9607A603B600346FB7300BFE5
:100330001437BD465DF8047B704780B584B000AFCC
:10034000B9607A603B600346FB73FB7B002B03D0F4
:10035000FB7B184601F054FA00BF1037BD4680BD44
:1003600080B584B000AFB9607A603B600346FB7330
:10037000FB7B002B06D0BB681B68BA685168FA7B10
:100380001046984700BF1037BD4680BD80B485B089
:1003900000AF786039607B68FB6002E0FB68013386
:1003A000FB60FB681B78002B04D03B685A1E3A6048
:1003B000002BF3D1FA687B68D31A18461437BD4670
:1003C0005DF8047B704780B483B000AF0346FB71D7
:1003D000FB792F2B04D9FB79392B01D8012300E0BD
:1003E000002303F00103DBB218460C37BD465DF86D
:1003F000047B704780B584B000AF78600023FB6059
:100400000EE0FA6813469B0013445B0018467B68B5
:100410001B68591C7A6811601B780344303BFB60F1
:100420007B681B681B781846FFF7CDFF0346002B3F
:10043000E7D1FB6818461037BD4680BD90B589B03E
:1004400000AFF860B9607A603B607B687B61BB6C31
:1004500003F00203002B36D17B6C002B18D0BB6C51
:1004600003F00103002B13D097F83830002B04D190
:10047000BB6C03F00C03002B0AD07B6C013B7B644C
:1004800006E07B6B5A1C7A633A6B134430221A7075
:100490007A6B3B6C9A420AD27B6B1F2BF1D906E038
:1004A0007B6B5A1C7A633A6B134430221A70BB6C14
:1004B00003F00103002B06D07A6B7B6C9A4202D2C8
:1004C0007B6B1F2BECD9BB6C03F01003002B58D0B7
:1004D000BB6C03F48063002B16D17B6B002B13D015
:1004E0007A6B3B6C9A4203D07A6B7B6C9A420BD14D
:1004F0007B6B013B7B637B6B002B05D0FB6B102B75
:1005000002D17B6B013B7B63FB6B102B0FD1BB6C70
:1005100003F02003002B0AD17B6B1F2B07D87B6BCA
:100520005A1C7A633A6B134478221A701FE0FB6BF3
:10053000102B0FD1BB6C03F02003002B0AD07B6B78
:100540001F2B07D87B6B5A1C7A633A6B13445822D3
:100550001A700CE0FB6B022B09D17B6B1F2B06D8AA
:100560007B6B5A1C7A633A6B134462221A707B6B62
:100570001F2B06D87B6B5A1C7A633A6B13443022CC
:100580001A707B6B1F2B24D897F83830002B07D0BC
:100590007B6B5A1C7A633A6B13442D221A7018E055
:1005A000BB6C03F00403002B07D07B6B5A1C7A63EF
:1005B0003A6B13442B221A700BE0BB6C03F0080358
:1005C000002B06D07B6B5A1C7A633A6B13442022B3
:1005D0001A70BB6C03F00203002B16D1BB6C03F046
:1005E0000103002B11D17B6BFB610AE07A68531C7D
:1005F0007B60FC683B68B9682020A047FB69013339
:10060000FB61FA697B6C9A42F0D30023BB6110E076
:100610007A6BBB69D31A013B3A6B134418787A683A
:10062000531C7B60FC683B68B968A047BB69013319
:10063000BB61BA697B6B9A42EAD3BB6C03F00203DD
:10064000002B0ED007E07A68531C7B60FC683B6887
:10065000B9682020A0477A687B69D31A7A6C9A42DD
:10066000F1D87B6818462437BD4690BD80B596B05A
:1006700008AFF860B9607A603B6000237B633B6C35
:10068000002B03D17B6D23F010037B657B6D03F49E
:100690008063002B02D03B6C002B32D03B6CBA6CD9
:1006A000B3FBF2F2B96C01FB02F29B1A87F833300C
:1006B00097F83330092B04D897F833303033DAB257
:1006C0000DE07B6D03F02003002B01D0412200E000
:1006D000612297F833301344DBB20A3BDAB27B6B0A
:1006E000591C796338333B4403F8282C3A6CBB6CB3
:1006F000B2FBF3F33B643B6C002B02D07B6B1F2BF4
:10070000CCD97B6D06933B6D0593FB6C0493BB6C5E
:10071000039397F8443002937B6B019307F1100326
:1007200000933B687A68B968F868FFF787FE03466C
:1007300018463837BD4680BD80B596B008AFF86022
:10074000B9607A603B6000237B63D7E910231343D1
:1007500003D13B6E23F010033B663B6E03F48063D2
:10076000002B03D0D7E91023134337D0D7E910016A
:10077000D7E9142301F0D2FC134687F8333097F8F9
:100780003330092B04D897F833303033DAB20DE028
:100790003B6E03F02003002B01D0412200E06122D8
:1007A00097F833301344DBB20A3BDAB27B6B591C47
:1007B000796338333B4403F8282CD7E91423D7E96D
:1007C000100101F0ABFC02460B46C7E91023D7E944
:1007D0001023134302D07B6B1F2BC7D93B6D3A6E9E
:1007E0000692FA6D0592BA6D0492039397F8483019
:1007F00002937B6B019307F1100300933B687A68C7
:10080000B968F868FFF71AFE034618463837BD4640
:1008100080BD90B59DB000AF78613961FA60BB6072
:1008200087ED000BFB683B650023FB664FF0000281
:100830004FF00003C7E91223E9A3D3E90023C7E976
:100840001023D7E90023D7E9000101F0EDFB0346AF
:10085000002B19D1FA68531CFB607C69BB683969AD
:100860006E20A047FA68531CFB607C69BB6839693D
:100870006120A047FA68531CFB607C69BB6839693A
:100880006E20A047FB680CE2002387F86B304FF026
:1008900000024FF00003D7E9000101F0CFFB03464F
:1008A000002B0ED0012387F86B30D7E900234FF0DF
:1008B00000004FF0000101F0A9F902460B46C7E91C
:1008C0000023D7F8883003F48063002B10D106236F
:1008D000C7F880300CE0FB6E5A1CFA6670333B445C
:1008E000302203F8582CD7F88030013BC7F880300D
:1008F000FB6E1F2B03D8D7F88030092BEBD8D7E934
:10090000000101F0C3FB03467B66786E01F0CCFA70
:1009100002460B46D7E9000101F078F902460B4682
:1009200010461946AA4AD7F88030DB001344D3E9B1
:10093000002301F03DF802460B46C7E90E23D7E934
:100940000E0101F0CBFB03463B66386E01F09CFACA
:1009500002460B46D7E90E0101F058F902460B4654
:10096000C7E912234FF000029A4BD7E9120101F0B8
:1009700083FB0346002B17D03B6E01333B66386E7A
:1009800001F082FA924AD7F88030DB001344D3E9B1
:10099000002301F067FB0346002B1AD000233B66BF
:1009A0007B6E01337B6614E04FF00002894BD7E980
:1009B000120101F043FB0346002B0AD13B6E002BD2
:1009C00004D03B6E03F00103002B02D03B6E0133D9
:1009D0003B66D7E91023D7E9000101F04DFB034640
:1009E000002B01D000235CE1D7F88030002B33D1FD
:1009F000786E01F059FA02460B46D7E9000101F082
:100A000005F902460B46C7E9122301231C464FF0A5
:100A10000002704BD7E9120101F010FB0346002BD6
:100A200001D100231C46E3B283F00103DBB2002BAB
:100A300009D14FF00002674BD7E9120101F01CFB0E
:100A40000346002B4DD07B6E03F00103002B6AD0D0
:100A50007B6E01337B6666E0D7F88030FB651FE074
:100A6000FB6D013BFB65396E5B4BA3FB0123DA0891
:100A700013469B0013445B00CA1AD2B2FB6E591C8A
:100A8000F9663032D2B270333B4403F8582C3B6ED7
:100A9000514AA2FB0323DB083B663B6E002B03D0CD
:100AA000FB6E1F2BDCD909E000BF07E0FB6E5A1C70
:100AB000FA6670333B44302203F8582CFB6E1F2B30
:100AC00004D8FB6D5A1EFA65002BEFD1FB6E1F2B6D
:100AD00029D8FB6E5A1CFA6670333B442E2203F869
:100AE000582C20E07A6E3D4B83FB02139910D317EC
:100AF000C91A0B469B000B445B00D11ACAB2FB6EAD
:100B0000591CF9663032D2B270333B4403F8582C8A
:100B10007B6E324A82FB03129210DB17D31A7B667C
:100B20007B6E002B03D0FB6E1F2BDBD900E000BFD8
:100B3000D7F8883003F00203002B29D1D7F888308A
:100B400003F00103002B23D0D7F88430002B17D0FB
:100B500097F86B30002B05D1D7F8883003F00C03E1
:100B6000002B0DD0D7F88430013BC7F8843007E064
:100B7000FB6E5A1CFA6670333B44302203F8582C43
:100B8000FA6ED7F884309A4202D2FB6E1F2BEFD94F
:100B9000FB6E1F2B36D897F86B30002B08D0FB6EFE
:100BA0005A1CFA6670333B442D2203F8582C29E076
:100BB000D7F8883003F00403002B15D0FB6E5A1CC5
:100BC000FA6670333B442B2203F8582C1AE000BF1E
:100BD000382400000000E03FCDCCCCCC67666666D0
:100BE0000000C0FFFFFFDF41D7F8883003F00803A3
:100BF000002B07D0FB6E5A1CFA6670333B44202250
:100C000003F8582CD7F8883003F00203002B18D1D2
:100C1000D7F8883003F00103002B12D1FB6EBB65BF
:100C20000AE0FA68531CFB607C69BB6839692020C4
:100C3000A047BB6D0133BB65BA6DD7F884309A42CB
:100C4000EFD300237B6511E0FA6E7B6DD31A013B75
:100C500070333B4413F8580CFA68531CFB607C69F2
:100C6000BB683969A0477B6D01337B657A6DFB6E8C
:100C70009A42E9D3D7F8883003F00203002B0FD053
:100C800007E0FA68531CFB607C69BB683969202067
:100C9000A047FA683B6DD31AD7F884209A42F0D85F
:100CA000FB6818467437BD4690BD2DE9F04FA3B0E0
:100CB0000AAF78613961FA60BB600023FB643B696D
:100CC000002B40F07D84A34B7B6100F079BCBB68B6
:100CD0001B78252B0DD0BB681878FA6C531CFB646D
:100CE0007C69FB683969A047BB680133BB6000F0D1
:100CF00067BCBB680133BB600023FB65BB681B7826
:100D0000203B102B56D801A252F823F08D0D000085
:100D1000B50D0000B50D0000A10D0000B50D0000DF
:100D2000B50D0000B50D0000B50D0000B50D0000BB
:100D3000B50D0000B50D0000790D0000B50D0000E7
:100D4000650D0000B50D0000B50D0000510D00004F
:100D5000FB6D43F00103FB65BB680133BB600123FE
:100D60003B652AE0FB6D43F00203FB65BB68013382
:100D7000BB6001233B6520E0FB6D43F00403FB6592
:100D8000BB680133BB6001233B6516E0FB6D43F09C
:100D90000803FB65BB680133BB6001233B650CE0C6
:100DA000FB6D43F01003FB65BB680133BB6001239F
:100DB0003B6502E000233B6500BF3B6D002B9DD1EE
:100DC0000023BB65BB681B781846FFF7FCFA034697
:100DD000002B06D007F108031846FFF70BFBB86598
:100DE0001AE0BB681B782A2B16D1D7F888301A1D59
:100DF000C7F888201B68BB63BB6B002B07DAFB6D51
:100E000043F00203FB65BB6B5B42BB6501E0BB6B60
:100E1000BB65BB680133BB6000237B65BB681B7887
:100E20002E2B27D1FB6D43F48063FB65BB68013338
:100E3000BB60BB681B781846FFF7C5FA0346002B5A
:100E400006D007F108031846FFF7D4FA786511E0D9
:100E5000BB681B782A2B0DD1D7F888301A1DC7F82C
:100E600088201B687B637B6B23EAE3737B65BB682D
:100E70000133BB60BB681B78683B122B66D801A2AC
:100E800052F823F0F70E00004D0F00002D0F000068
:100E90004D0F0000D10E00004D0F00004D0F00005F
:100EA0004D0F00004D0F00004D0F00004D0F0000D2
:100EB0004D0F00001D0F00004D0F00004D0F0000F2
:100EC0004D0F00004D0F00004D0F00003D0F0000C2
:100ED000FB6D43F48073FB65BB680133BB60BB688B
:100EE0001B786C2B34D1FB6D43F40073FB65BB683E
:100EF0000133BB602CE0FB6D43F08003FB65BB68F6
:100F00000133BB60BB681B78682B25D1FB6D43F0B8
:100F10004003FB65BB680133BB601DE0FB6D43F420
:100F20008073FB65BB680133BB6016E0FB6D43F467
:100F30000073FB65BB680133BB600EE0FB6D43F4DF
:100F40008073FB65BB680133BB6006E000BF04E053
:100F500000BF02E01F03000000BFBB681B78253BF9
:100F6000532B00F2208301A252F823F08F150000CA
:100F7000A7150000A7150000A7150000A715000081
:100F8000A7150000A7150000A7150000A715000071
:100F9000A7150000A7150000A7150000A715000061
:100FA000A7150000A7150000A7150000A715000051
:100FB000A7150000A7150000A7150000A715000041
:100FC000A7150000A7150000A7150000A715000031
:100FD000A7150000A7150000A7150000A715000021
:100FE000A7150000A7150000A7150000A715000011
:100FF00073130000A7150000A7150000A715000037
:10100000A7150000A7150000A7150000A7150000F0
:10101000A7150000A7150000A7150000A7150000E0
:10102000A7150000A7150000A7150000A7150000D0
:10103000A7150000A7150000BD100000A7150000AF
:10104000A7150000A7150000A7150000A7150000B0
:10105000A7150000A7150000A7150000A7150000A0
:10106000BD100000B3130000BD100000A715000064
:1010700073130000A7150000A7150000BD100000A5
:10108000A7150000A7150000A7150000A715000070
:10109000A7150000BD100000F3140000A715000004
:1010A000A71500002B140000A7150000BD100000BC
:1010B000A7150000A7150000BD100000BB681B7835
:1010C000782B03D0BB681B78582B02D11023BB644C
:1010D00013E0BB681B786F2B02D10823BB640CE0C4
:1010E000BB681B78622B02D10223BB6405E00A2394
:1010F000BB64FB6D23F01003FB65BB681B78582BAA
:1011000003D1FB6D43F02003FB65BB681B78692BA3
:1011100007D0BB681B78642B03D0FB6D23F00C0356
:10112000FB65FB6D03F48063002B03D0FB6D23F0A4
:101130000103FB65BB681B78692B04D0BB681B7877
:10114000642B40F09880FB6D03F40073002B31D0CA
:10115000D7F88830073323F0070303F10802C7F8F4
:101160008820D3E90023C7E90623D7E90623002B0B
:1011700006DA0021D2F1000861EB030942464B4632
:10118000F969C90FC9B2B86C00248246A346F86D4C
:101190000890B86D0790786D0690CDE904AB029188
:1011A000CDE90023FB68FA6C39697869FFF7C4FA66
:1011B000F864DAE0FB6D03F48073002B20D0D7F8DD
:1011C00088301A1DC7F888201B687B627B6A002B59
:1011D000B8BF5B4219467B6ADB0FDBB2FA6D059242
:1011E000BA6D04927A6D0392BA6C029201930091E7
:1011F000FB68FA6C39697869FFF738FAF864B4E08B
:10120000FB6D03F04003002B07D0D7F888301A1D80
:10121000C7F888201B68DBB212E0FB6D03F0800387
:10122000002B07D0D7F888301A1DC7F888201B6814
:101230001BB205E0D7F888301A1DC7F888201B6854
:10124000BB62BB6A002BB8BF5B421946BB6ADB0FAF
:10125000DBB2FA6D0592BA6D04927A6D0392BA6CA4
:10126000029201930091FB68FA6C39697869FFF783
:10127000FDF9F86479E0FB6D03F40073002B22D0D4
:10128000D7F88830073323F0070303F10802C7F8C3
:101290008820D3E90023B96C00200D460646F96D7D
:1012A0000891B96D0791796D0691CDE90456002139
:1012B0000291CDE90023FB68FA6C39697869FFF780
:1012C0003BFAF86451E0FB6D03F48073002B18D0F7
:1012D000D7F888301A1DC7F888201B68FA6D059268
:1012E000BA6D04927A6D0392BA6C02920022019256
:1012F0000093FB68FA6C39697869FFF7B7F9F8640D
:1013000033E0FB6D03F04003002B07D0D7F88830A3
:101310001A1DC7F888201B68DBB212E0FB6D03F0D2
:101320008003002B07D0D7F888301A1DC7F8882013
:101330001B689BB205E0D7F888301A1DC7F88820D3
:101340001B68FB62FB6D0593BB6D04937B6D039380
:10135000BB6C029300230193FB6A0093FB68FA6C59
:1013600039697869FFF782F9F864BB680133BB60BB
:1013700026E1D7F88830073323F0070303F108028A
:10138000C7F8882093ED007BFB6D0293BB6D019342
:101390007B6D0093B0EE470AF0EE670AFB68FA6CCB
:1013A00039697869FFF735FAF864BB680133BB60C7
:1013B00006E101237B64FB6D03F00203002B0ED1D9
:1013C00007E0FA6C531CFB647C69FB6839692020D8
:1013D000A0477B6C5A1C7A64BA6D9A42F1D8D7F850
:1013E00088301A1DC7F888201B68D8B2FA6C531CC5
:1013F000FB647C69FB683969A047FB6D03F002035D
:10140000002B0ED007E0FA6C531CFB647C69FB6870
:1014100039692020A0477B6C5A1C7A64BA6D9A42C5
:10142000F1D8BB680133BB60CAE0D7F888301A1D19
:10143000C7F888201B683B647B6D002B01D07B6D57
:1014400001E04FF0FF331946386CFEF79FFFF86359
:10145000FB6D03F48063002B05D0FA6B7B6D934228
:1014600028BF1346FB63FB6D03F00203002B1AD168
:1014700007E0FA6C531CFB647C69FB683969202027
:10148000A047FB6B5A1CFA63BA6D9A42F1D80AE086
:101490003B6C5A1C3A641878FA6C531CFB647C69E8
:1014A000FB683969A0473B6C1B78002B09D0FB6DAA
:1014B00003F48063002BEBD07B6D5A1E7A65002B02
:1014C000E6D1FB6D03F00203002B0ED007E0FA6CAF
:1014D000531CFB647C69FB6839692020A047FB6BC7
:1014E0005A1CFA63BA6D9A42F1D8BB680133BB60EB
:1014F00066E00823BB65FB6D43F02103FB65002319
:1015000087F8333097F83330002B23D0D7F8883062
:101510001A1DC7F888201B681A4600233A607B60B2
:10152000FB6D0893BB6D07937B6D06934FF0100224
:101530004FF00003CDE9042300230293D7E90034E0
:10154000CDE90034FB68FA6C39697869FFF7F4F883
:10155000F86418E0D7F888301A1DC7F888201B688F
:101560001A46FB6D0593BB6D04937B6D03931023AB
:101570000293002301930092FB68FA6C3969786941
:10158000FFF774F8F864BB680133BB6018E0FA6CCD
:10159000531CFB647C69FB6839692520A047BB6844
:1015A0000133BB600CE0BB681878FA6C531CFB6419
:1015B0007C69FB683969A047BB680133BB6000BF29
:1015C000BB681B78002B7FF482ABFA6CFB689A42F5
:1015D00002D3FB685A1E00E0FA6C7C69FB6839692B
:1015E0000020A047FB6C18466437BD46BDE8F08F6D
:1015F0000FB480B586B002AF07F11C03BB60391D84
:10160000BB680093BB694FF0FF320648FFF74DFB04
:10161000F860FB6818461037BD46BDE8804004B04E
:10162000704700BF3B0300000EB480B587B002AF27
:10163000786007F12003BB60BB680093FB694FF043
:10164000FF3279680548FFF730FBF860FB68184601
:101650001437BD46BDE8804003B07047F10200007A
:101660000CB480B586B002AF7860396007F11C0316
:10167000BB60BB680093BB693A6879680548FFF7AF
:1016800014FBF860FB6818461037BD46BDE8804083
:1016900002B07047F102000080B586B002AFF8607A
:1016A000B9607A603B603B6800937B68BA68F96810
:1016B0000348FFF7FAFA034618461037BD4680BDC7
:1016C000F10200000CB480B588B002AF78603960D8
:1016D00007F124033B617B68BB603B68FB6007F15B
:1016E00008013B6900933B6A4FF0FF320548FFF762
:1016F000DCFA78617B6918461837BD46BDE8804042
:1017000002B070476103000080B483B000AF0346AD
:10171000FB7197F90730002B0BDBFB7903F01F02FD
:10172000074997F907305B09012000FA02F241F8F6
:10173000232000BF0C37BD465DF8047B704700BF17
:1017400000E100E080B483B000AF78600B46FB702E
:101750001346BB70FA78BB781343DBB21A467B683A
:10176000C3F86C2500BF0C37BD465DF8047B70479D
:1017700080B483B000AF786039607B683A68C3F8A2
:10178000242500BF0C37BD465DF8047B704780B54B
:1017900082B000AF7860002200210C48FFF7D2FF32
:1017A0000A4A7B68C2F80C354FF080510748FFF7B2
:1017B000DFFF064B8022C3F804230220FFF7A4FFBB
:1017C000002318460837BD4680BD00BF00200040FA
:1017D00080B400AF084BD3F81C31012B06D1064B67
:1017E0000022C3F81C21054B01221A7000BFBD4620
:1017F0005DF8047B704700BF00200040000000201F
:1018000080B483B000AF0346FB71134B0422C3F8CE
:101810000025114AFB79C2F81C350F4B01229A6052
:1018200002E020BF40BF20BF0C4B1B7883F00103B8
:10183000DBB2002BF5D1094B00221A70064B0122B6
:10184000DA60054B0022C3F8002500BF0C37BD4607
:101850005DF8047B704700BF0020004000000020BE
:1018600080B485B000AF786039607B68FB60FB684E
:101870003A681A6000BF1437BD465DF8047B7047B4
:1018800080B400AF1D4B1F22C3F814251B4B04224C
:10189000C3F80825194B1C22C3F80C25174B1D2231
:1018A000C3F810254FF0A043D3F810374FF0A042F3
:1018B00043F44073C2F810374FF0A043D3F87037A9
:1018C0004FF0A04243F44073C2F870370B4B06222E
:1018D000C3F85425094BFF22C3F86425074B4FF08A
:1018E0008042C3F82425054B0722C3F800250023B6
:1018F0001846BD465DF8047B704700BF00F002400B
:1019000080B485B000AFF860B9607A603B60144A7B
:101910007B68C2F84835124A3B68C2F83835104A2D
:10192000FB68C2F844350E4ABB68C2F834350C4B2C
:101930000022C3F818210A4B01221A6100BF084B8C
:10194000D3F81831002BFAD0054B0022C3F8182128
:10195000002318461437BD465DF8047B704700BF6E
:1019600000F0024080B582B000AF00237B600CE045
:101970007B68DBB2C3F14003D9B20B4A7B681344E6
:101980000A461A707B6801337B607B683F2BEFD976
:101990002023402205490448FFF7B2FF00231846E0
:1019A0000837BD4680BD00BF440000200400002071
:1019B00070B54FF0FF0C4CF4E06C1CEA11541DBFE5
:1019C0001CEA135594EA0C0F95EA0C0F00F0DEF8B0
:1019D0002C4481EA030621EA4C5123EA4C5350EA95
:1019E000013518BF52EA033541F4801143F48013E6
:1019F00038D0A0FB02CE4FF00005E1FB02E506F077
:101A00000042E0FB03E54FF00006E1FB03569CF0CB
:101A1000000F18BF4EF0010EA4F1FF04B6F5007FD1
:101A200064F5407404D25FEA4E0E6D4146EB060643
:101A300042EAC62141EA55514FEAC52040EA5E50CC
:101A40004FEACE2EB4F1FD0C88BFBCF5E06F1ED876
:101A5000BEF1004F08BF5FEA500E50F1000041EBAD
:101A6000045170BD06F0004646EA010140EA02005A
:101A700081EA0301B4EB5C04C2BFD4EB0C0541EA7C
:101A8000045170BD41F480114FF0000E013C00F391
:101A9000AB8014F1360FDEBF002001F0004170BDB5
:101AA000C4F10004203C35DA0C341BDC04F11404CE
:101AB000C4F1200500FA05F320FA04F001FA05F25A
:101AC00040EA020001F0004221F0004110EBD37027
:101AD00021FA04F642EB06015EEA430E08BF20EA53
:101AE000D37070BDC4F10C04C4F1200500FA04F3F6
:101AF00020FA05F001FA04F240EA020001F0004188
:101B000010EBD37041F100015EEA430E08BF20EAFA
:101B1000D37070BDC4F1200500FA05F24EEA020E42
:101B200020FA04F301FA05F243EA020321FA04F071
:101B300001F0004121FA04F220EA020000EBD37028
:101B40005EEA430E08BF20EAD37070BD94F0000F28
:101B50000FD101F00046400041EB010111F4801F5C
:101B600008BF013CF7D041EA060195F0000F18BF0D
:101B7000704703F00046520043EB030313F4801F49
:101B800008BF013DF7D043EA0603704794EA0C0F03
:101B90000CEA135518BF95EA0C0F0CD050EA410619
:101BA00018BF52EA4306D1D181EA030101F0004196
:101BB0004FF0000070BD50EA410606BF10461946BE
:101BC00052EA430619D094EA0C0F02D150EA0136CA
:101BD00013D195EA0C0F05D152EA03361CBF10460B
:101BE00019460AD181EA030101F0004141F0FE41AA
:101BF00041F470014FF0000070BD41F0FE4141F42E
:101C0000780170BD81F0004102E000BF83F0004325
:101C100030B54FEA41044FEA430594EA050F08BF87
:101C200090EA020F1FBF54EA000C55EA020C7FEA4B
:101C3000645C7FEA655C00F0E2804FEA5454D4EBC8
:101C40005555B8BF6D420CDD2C4480EA020281EA92
:101C5000030382EA000083EA010180EA020281EACA
:101C60000303362D88BF30BD11F0004F4FEA01311C
:101C70004FF4801C4CEA113102D0404261EB41012B
:101C800013F0004F4FEA03334CEA133302D05242B1
:101C900063EB430394EA050F00F0A780A4F101046D
:101CA000D5F1200E0DDB02FA0EFC22FA05F28018A7
:101CB00041F1000103FA0EF2801843FA05F359418D
:101CC0000EE0A5F120050EF1200E012A03FA0EFC0C
:101CD00028BF4CF0020C43FA05F3C01851EBE37136
:101CE00001F0004507D54FF0000EDCF1000C7EEB53
:101CF00000006EEB0101B1F5801F1BD3B1F5001F91
:101D00000CD349085FEA30004FEA3C0C04F10104AF
:101D10004FEA445212F5800F80F09A80BCF1004FD8
:101D200008BF5FEA500C50F1000041EB045141EA5A
:101D3000050130BD5FEA4C0C404141EB0101013C23
:101D400028BFB1F5801FE9D291F0000F04BF014612
:101D50000020B1FA81F308BF2033A3F10B03B3F1E4
:101D600020020CDA0C3208DD02F1140CC2F10C0274
:101D700001FA0CF021FA02F10CE002F11402D8BFD2
:101D8000C2F1200C01FA02F120FA0CFCDCBF41EA9E
:101D90000C019040E41AA2BF01EB0451294330BD6D
:101DA0006FEA04041F3C1CDA0C340EDC04F114044A
:101DB000C4F1200220FA04F001FA02F340EA030021
:101DC00021FA04F345EA030130BDC4F10C04C4F167
:101DD000200220FA02F001FA04F340EA0300294647
:101DE00030BD21FA04F0294630BD94F0000F83F491
:101DF000801306BF81F480110134013D4EE77FEA74
:101E0000645C18BF7FEA655C29D094EA050F08BFBF
:101E100090EA020F05D054EA000C04BF19461046A0
:101E200030BD91EA030F1EBF0021002030BD5FEAE4
:101E3000545C05D14000494128BF41F0004130BD0C
:101E400014F580043CBF01F5801130BD01F0004560
:101E500045F0FE4141F470014FF0000030BD7FEAD3
:101E6000645C1ABF194610467FEA655C1CBF0B46CE
:101E7000024650EA013406BF52EA033591EA030FE5
:101E800041F4002130BD00BF90F0000F04BF0021DD
:101E9000704730B54FF4806404F132044FF0000510
:101EA0004FF0000150E700BF90F0000F04BF002189
:101EB000704730B54FF4806404F1320410F00045EF
:101EC00048BF40424FF000013EE700BF42004FEAEA
:101ED000E2014FEA31014FEA02701FBF12F07F4367
:101EE00093F07F4F81F06051704732F07F4208BF1E
:101EF000704793F07F4F04BF41F40021704730B525
:101F00004FF4607401F0004521F000411CE700BF70
:101F100050EA010208BF704730B54FF000050AE0F3
:101F200050EA010208BF704730B511F0004502D5F4
:101F3000404261EB41014FF4806404F132045FEAF6
:101F4000915C3FF4D8AE4FF003025FEADC0C18BF9F
:101F500003325FEADC0C18BF033202EBDC02C2F191
:101F6000200300FA03FC20FA02F001FA03FE40EA23
:101F70000E0021FA02F11444BDE600BF4FF0FF3C11
:101F800006E000BF4FF0010C02E000BF4FF0010C73
:101F90004DF804CD4FEA410C7FEA6C5C4FEA430CEC
:101FA00018BF7FEA6C5C1BD001B050EA410C0CBF3B
:101FB00052EA430C91EA030F02BF90EA020F00209D
:101FC000704710F1000F91EA030F58BF994208BF04
:101FD00090422CBFD8176FEAE37040F001007047C1
:101FE0004FEA410C7FEA6C5C02D150EA013C07D118
:101FF0004FEA430C7FEA6C5CD6D152EA033CD3D063
:102000005DF8040B704700BF8446104662468C465C
:102010001946634600E000BF01B5FFF7B7FF00288F
:1020200048BF10F1000F01BD4DF808EDFFF7F4FFB8
:102030000CBF012000205DF808FB00BF4DF808ED43
:10204000FFF7EAFF34BF012000205DF808FB00BF66
:102050004DF808EDFFF7E0FF94BF012000205DF888
:1020600008FB00BF4DF808EDFFF7CEFF94BF01203D
:1020700000205DF808FB00BF4DF808EDFFF7C4FF36
:1020800034BF012000205DF808FB00BF4FEA410289
:1020900012F5001215D211D56FF47873B3EB6252BA
:1020A00012D94FEAC12343F0004343EA505311F0E1
:1020B000004F23FA02F018BF404270474FF0000073
:1020C000704750EA013005D111F0004008BF6FF0B1
:1020D000004070474FF00000704700BF4A0011D227
:1020E00012F5001211D20DD56FF47873B3EB625272
:1020F0000ED44FEAC12343F0004343EA505323FA7E
:1021000002F070474FF00000704750EA013002D1F2
:102110004FF0FF3070474FF00000704753B94AB995
:10212000002908BF00281CBF4FF0FF314FF0FF30DF
:1021300000F074B9ADF1080C6DE904CE00F006F8BA
:10214000DDF804E0DDE9022304B070472DE9F04733
:10215000089D04468E46002B4DD18A42944669D98B
:10216000B2FA82F252B101FA02F3C2F1200120FA6E
:1021700001F10CFA02FC41EA030E94404FEA1C48BC
:10218000210CBEFBF8F61FFA8CF708FB16E341EAB8
:10219000034306FB07F199420AD91CEB030306F13E
:1021A000FF3080F01F81994240F21C81023E63445F
:1021B0005B1AA4B2B3FBF8F008FB103344EA034403
:1021C00000FB07F7A7420AD91CEB040400F1FF3318
:1021D00080F00A81A74240F207816444023840EA55
:1021E0000640E41B00261DB1D4400023C5E900438E
:1021F0003146BDE8F0878B4209D9002D00F0EF8011
:102200000026C5E9000130463146BDE8F087B3FA43
:1022100083F6002E4AD18B4202D3824200F2F9802B
:10222000841A61EB030301209E46002DE0D0C5E92E
:10223000004EDDE702B9FFDEB2FA82F2002A40F07A
:102240009280A1EB0C014FEA1C471FFA8CFE01267D
:10225000200CB1FBF7F307FB131140EA01410EFB21
:1022600003F0884208D91CEB010103F1FF3802D2C8
:10227000884200F2CB804346091AA4B2B1FBF7F0C2
:1022800007FB101144EA01440EFB00FEA64508D9E5
:102290001CEB040400F1FF3102D2A64500F2BB8022
:1022A0000846A4EB0E0440EA03409CE7C6F1200771
:1022B000B34022FA07FC4CEA030C20FA07F401FAB7
:1022C00006F31C43F9404FEA1C4900FA06F3B1FB40
:1022D000F9F8200C1FFA8CFE09FB181140EA0141A5
:1022E00008FB0EF0884202FA06F20BD91CEB010142
:1022F00008F1FF3A80F08880884240F28580A8F19A
:1023000002086144091AA4B2B1FBF9F009FB1011EB
:1023100044EA014100FB0EFE8E4508D91CEB010189
:1023200000F1FF346CD28E456AD90238614440EA2C
:102330000840A0FB0294A1EB0E01A142C846A646AC
:1023400056D353D05DB1B3EB080261EB0E0101FA35
:1023500007F722FA06F3F1401F43C5E90071002692
:102360003146BDE8F087C2F12003D8400CFA02FCE8
:1023700021FA03F3914001434FEA1C471FFA8CFEF8
:10238000B3FBF7F007FB10360B0C43EA064300FBE8
:102390000EF69E4204FA02F408D91CEB030300F186
:1023A000FF382FD29E422DD9023863449B1B89B23D
:1023B000B3FBF7F607FB163341EA034106FB0EF3C6
:1023C0008B4208D91CEB010106F1FF3816D28B4273
:1023D00014D9023E6144C91A46EA004638E72E463F
:1023E000284605E70646E3E61846F8E64B45A9D237
:1023F000B9EB020864EB0C0E0138A3E74646EAE7A6
:10240000204694E74046D1E7D0467BE7023B614453
:1024100032E7304609E76444023842E7704700BFBC
:1024200048656C6C6F2E2E0D0A0000000000000045
:102430000338FDD870470000000000000000F03FA6
:10244000000000000000244000000000000059408F
:102450000000000000408F40000000000088C340E2
:1024600000000000006AF8400000000080842E4157
:1024700000000000D01263410000000084D79741A3
:082480000000000065CDCD4114
:0400000300000100F8
:00000001FF
